{
  "_format": "hh-sol-artifact-1",
  "contractName": "Tasks",
  "sourceName": "contracts/Tasks.sol",
  "abi": [
    {
      "anonymous": false,
      "inputs": [
        {
          "indexed": true,
          "internalType": "address",
          "name": "owner",
          "type": "address"
        },
        {
          "indexed": false,
          "internalType": "uint256",
          "name": "taskIndex",
          "type": "uint256"
        },
        {
          "indexed": false,
          "internalType": "bool",
          "name": "completed",
          "type": "bool"
        }
      ],
      "name": "TaskCompleted",
      "type": "event"
    },
    {
      "anonymous": false,
      "inputs": [
        {
          "indexed": true,
          "internalType": "address",
          "name": "owner",
          "type": "address"
        },
        {
          "indexed": false,
          "internalType": "string",
          "name": "description",
          "type": "string"
        },
        {
          "indexed": false,
          "internalType": "uint256",
          "name": "time",
          "type": "uint256"
        }
      ],
      "name": "TaskCreated",
      "type": "event"
    },
    {
      "anonymous": false,
      "inputs": [
        {
          "indexed": true,
          "internalType": "address",
          "name": "owner",
          "type": "address"
        },
        {
          "indexed": false,
          "internalType": "uint256",
          "name": "taskIndex",
          "type": "uint256"
        }
      ],
      "name": "TaskDeleted",
      "type": "event"
    },
    {
      "inputs": [
        {
          "internalType": "string",
          "name": "_taskDescription",
          "type": "string"
        },
        {
          "internalType": "uint256",
          "name": "_time",
          "type": "uint256"
        }
      ],
      "name": "createTask",
      "outputs": [],
      "stateMutability": "nonpayable",
      "type": "function"
    },
    {
      "inputs": [],
      "name": "deleteCompletedTasks",
      "outputs": [],
      "stateMutability": "nonpayable",
      "type": "function"
    },
    {
      "inputs": [],
      "name": "getAllOwners",
      "outputs": [
        {
          "internalType": "address[]",
          "name": "",
          "type": "address[]"
        }
      ],
      "stateMutability": "view",
      "type": "function"
    },
    {
      "inputs": [],
      "name": "getTasks",
      "outputs": [
        {
          "components": [
            {
              "internalType": "string",
              "name": "description",
              "type": "string"
            },
            {
              "internalType": "uint256",
              "name": "time",
              "type": "uint256"
            },
            {
              "internalType": "bool",
              "name": "completed",
              "type": "bool"
            }
          ],
          "internalType": "struct Tasks.Task[]",
          "name": "",
          "type": "tuple[]"
        }
      ],
      "stateMutability": "view",
      "type": "function"
    },
    {
      "inputs": [
        {
          "internalType": "uint256",
          "name": "_taskIndex",
          "type": "uint256"
        }
      ],
      "name": "markTaskAsCompleted",
      "outputs": [],
      "stateMutability": "nonpayable",
      "type": "function"
    }
  ],
  "bytecode": "0x608060405234801561001057600080fd5b50611468806100206000396000f3fe608060405234801561001057600080fd5b50600436106100575760003560e01c806304a87e381461005c57806304fe2b341461007a57806316c1274614610096578063b10bcefa146100b4578063f5bef8f9146100d0575b600080fd5b6100646100da565b6040516100719190610a76565b60405180910390f35b610094600480360381019061008f9190610c0d565b61022f565b005b61009e610403565b6040516100ab9190610d59565b60405180910390f35b6100ce60048036038101906100c99190610d7b565b610491565b005b6100d86105e8565b005b60606000803373ffffffffffffffffffffffffffffffffffffffff1673ffffffffffffffffffffffffffffffffffffffff168152602001908152602001600020600001805480602002602001604051908101604052809291908181526020016000905b82821015610226578382906000526020600020906003020160405180606001604052908160008201805461017090610dd7565b80601f016020809104026020016040519081016040528092919081815260200182805461019c90610dd7565b80156101e95780601f106101be576101008083540402835291602001916101e9565b820191906000526020600020905b8154815290600101906020018083116101cc57829003601f168201915b50505050508152602001600182015481526020016002820160009054906101000a900460ff1615151515815250508152602001906001019061013d565b50505050905090565b6000604051806060016040528084815260200183815260200160001515815250905060008060003373ffffffffffffffffffffffffffffffffffffffff1673ffffffffffffffffffffffffffffffffffffffff1681526020019081526020016000206000018054905003610301576001339080600181540180825580915050600190039060005260206000200160009091909190916101000a81548173ffffffffffffffffffffffffffffffffffffffff021916908373ffffffffffffffffffffffffffffffffffffffff1602179055505b6000803373ffffffffffffffffffffffffffffffffffffffff1673ffffffffffffffffffffffffffffffffffffffff16815260200190815260200160002060000181908060018154018082558091505060019003906000526020600020906003020160009091909190915060008201518160000190816103819190610fb4565b506020820151816001015560408201518160020160006101000a81548160ff02191690831515021790555050503373ffffffffffffffffffffffffffffffffffffffff167f05823eb620f87a6624cbda6e3a3c8e9aef6b9c0c8483cece7a822f3084e8fbaf84846040516103f69291906110df565b60405180910390a2505050565b6060600180548060200260200160405190810160405280929190818152602001828054801561048757602002820191906000526020600020905b8160009054906101000a900473ffffffffffffffffffffffffffffffffffffffff1673ffffffffffffffffffffffffffffffffffffffff168152602001906001019080831161043d575b5050505050905090565b6000803373ffffffffffffffffffffffffffffffffffffffff1673ffffffffffffffffffffffffffffffffffffffff168152602001908152602001600020600001805490508110610517576040517f08c379a000000000000000000000000000000000000000000000000000000000815260040161050e9061115b565b60405180910390fd5b60016000803373ffffffffffffffffffffffffffffffffffffffff1673ffffffffffffffffffffffffffffffffffffffff168152602001908152602001600020600001828154811061056c5761056b61117b565b5b906000526020600020906003020160020160006101000a81548160ff0219169083151502179055503373ffffffffffffffffffffffffffffffffffffffff167f3621461a70da48fecf8452ce0a2af8773e6f26aff6a39e0504d0d9c51c6032068260016040516105dd9291906111b9565b60405180910390a250565b60008060003373ffffffffffffffffffffffffffffffffffffffff1673ffffffffffffffffffffffffffffffffffffffff168152602001908152602001600020905060008160000180549050905060005b82600001805490508110156107cf5782600001818154811061065e5761065d61117b565b5b906000526020600020906003020160020160009054906101000a900460ff16156107bc5760008190505b6001846000018054905061069c9190611211565b81101561075357836000016001826106b49190611245565b815481106106c5576106c461117b565b5b90600052602060002090600302018460000182815481106106e9576106e861117b565b5b90600052602060002090600302016000820181600001908161070b919061128f565b50600182015481600101556002820160009054906101000a900460ff168160020160006101000a81548160ff0219169083151502179055509050508080600101915050610688565b508260000180548061076857610767611377565b5b60019003818190600052602060002090600302016000808201600061078d9190610843565b60018201600090556002820160006101000a81549060ff02191690555050905580806107b8906113a6565b9150505b80806107c7906113cf565b915050610639565b508160000180549050811461083f573373ffffffffffffffffffffffffffffffffffffffff167fd1bc87501afcaa22b7f6481dac99ed45fbe02321873ca9b55c1f41b9d78b8fb38360000180549050836108299190611211565b6040516108369190611417565b60405180910390a25b5050565b50805461084f90610dd7565b6000825580601f106108615750610880565b601f01602090049060005260206000209081019061087f9190610883565b5b50565b5b8082111561089c576000816000905550600101610884565b5090565b600081519050919050565b600082825260208201905092915050565b6000819050602082019050919050565b600081519050919050565b600082825260208201905092915050565b60005b838110156109065780820151818401526020810190506108eb565b60008484015250505050565b6000601f19601f8301169050919050565b600061092e826108cc565b61093881856108d7565b93506109488185602086016108e8565b61095181610912565b840191505092915050565b6000819050919050565b61096f8161095c565b82525050565b60008115159050919050565b61098a81610975565b82525050565b600060608301600083015184820360008601526109ad8282610923565b91505060208301516109c26020860182610966565b5060408301516109d56040860182610981565b508091505092915050565b60006109ec8383610990565b905092915050565b6000602082019050919050565b6000610a0c826108a0565b610a1681856108ab565b935083602082028501610a28856108bc565b8060005b85811015610a645784840389528151610a4585826109e0565b9450610a50836109f4565b925060208a01995050600181019050610a2c565b50829750879550505050505092915050565b60006020820190508181036000830152610a908184610a01565b905092915050565b6000604051905090565b600080fd5b600080fd5b600080fd5b600080fd5b7f4e487b7100000000000000000000000000000000000000000000000000000000600052604160045260246000fd5b610aee82610912565b810181811067ffffffffffffffff82111715610b0d57610b0c610ab6565b5b80604052505050565b6000610b20610a98565b9050610b2c8282610ae5565b919050565b600067ffffffffffffffff821115610b4c57610b4b610ab6565b5b610b5582610912565b9050602081019050919050565b82818337600083830152505050565b6000610b84610b7f84610b31565b610b16565b905082815260208101848484011115610ba057610b9f610ab1565b5b610bab848285610b62565b509392505050565b600082601f830112610bc857610bc7610aac565b5b8135610bd8848260208601610b71565b91505092915050565b610bea8161095c565b8114610bf557600080fd5b50565b600081359050610c0781610be1565b92915050565b60008060408385031215610c2457610c23610aa2565b5b600083013567ffffffffffffffff811115610c4257610c41610aa7565b5b610c4e85828601610bb3565b9250506020610c5f85828601610bf8565b9150509250929050565b600081519050919050565b600082825260208201905092915050565b6000819050602082019050919050565b600073ffffffffffffffffffffffffffffffffffffffff82169050919050565b6000610cc082610c95565b9050919050565b610cd081610cb5565b82525050565b6000610ce28383610cc7565b60208301905092915050565b6000602082019050919050565b6000610d0682610c69565b610d108185610c74565b9350610d1b83610c85565b8060005b83811015610d4c578151610d338882610cd6565b9750610d3e83610cee565b925050600181019050610d1f565b5085935050505092915050565b60006020820190508181036000830152610d738184610cfb565b905092915050565b600060208284031215610d9157610d90610aa2565b5b6000610d9f84828501610bf8565b91505092915050565b7f4e487b7100000000000000000000000000000000000000000000000000000000600052602260045260246000fd5b60006002820490506001821680610def57607f821691505b602082108103610e0257610e01610da8565b5b50919050565b60008190508160005260206000209050919050565b60006020601f8301049050919050565b600082821b905092915050565b600060088302610e6a7fffffffffffffffffffffffffffffffffffffffffffffffffffffffffffffffff82610e2d565b610e748683610e2d565b95508019841693508086168417925050509392505050565b6000819050919050565b6000610eb1610eac610ea78461095c565b610e8c565b61095c565b9050919050565b6000819050919050565b610ecb83610e96565b610edf610ed782610eb8565b848454610e3a565b825550505050565b600090565b610ef4610ee7565b610eff818484610ec2565b505050565b5b81811015610f2357610f18600082610eec565b600181019050610f05565b5050565b601f821115610f6857610f3981610e08565b610f4284610e1d565b81016020851015610f51578190505b610f65610f5d85610e1d565b830182610f04565b50505b505050565b600082821c905092915050565b6000610f8b60001984600802610f6d565b1980831691505092915050565b6000610fa48383610f7a565b9150826002028217905092915050565b610fbd826108cc565b67ffffffffffffffff811115610fd657610fd5610ab6565b5b610fe08254610dd7565b610feb828285610f27565b600060209050601f83116001811461101e576000841561100c578287015190505b6110168582610f98565b86555061107e565b601f19841661102c86610e08565b60005b828110156110545784890151825560018201915060208501945060208101905061102f565b86831015611071578489015161106d601f891682610f7a565b8355505b6001600288020188555050505b505050505050565b600082825260208201905092915050565b60006110a2826108cc565b6110ac8185611086565b93506110bc8185602086016108e8565b6110c581610912565b840191505092915050565b6110d98161095c565b82525050565b600060408201905081810360008301526110f98185611097565b905061110860208301846110d0565b9392505050565b7f496e76616c6964207461736b20696e6465780000000000000000000000000000600082015250565b6000611145601283611086565b91506111508261110f565b602082019050919050565b6000602082019050818103600083015261117481611138565b9050919050565b7f4e487b7100000000000000000000000000000000000000000000000000000000600052603260045260246000fd5b6111b381610975565b82525050565b60006040820190506111ce60008301856110d0565b6111db60208301846111aa565b9392505050565b7f4e487b7100000000000000000000000000000000000000000000000000000000600052601160045260246000fd5b600061121c8261095c565b91506112278361095c565b925082820390508181111561123f5761123e6111e2565b5b92915050565b60006112508261095c565b915061125b8361095c565b9250828201905080821115611273576112726111e2565b5b92915050565b60008154905061128881610dd7565b9050919050565b81810361129d575050611375565b6112a682611279565b67ffffffffffffffff8111156112bf576112be610ab6565b5b6112c98254610dd7565b6112d4828285610f27565b6000601f83116001811461130357600084156112f1578287015490505b6112fb8582610f98565b86555061136e565b601f19841661131187610e08565b965061131c86610e08565b60005b828110156113445784890154825560018201915060018501945060208101905061131f565b86831015611361578489015461135d601f891682610f7a565b8355505b6001600288020188555050505b5050505050505b565b7f4e487b7100000000000000000000000000000000000000000000000000000000600052603160045260246000fd5b60006113b18261095c565b9150600082036113c4576113c36111e2565b5b600182039050919050565b60006113da8261095c565b91507fffffffffffffffffffffffffffffffffffffffffffffffffffffffffffffffff820361140c5761140b6111e2565b5b600182019050919050565b600060208201905061142c60008301846110d0565b9291505056fea2646970667358221220b02300ed206178f88255c87ba9da2409d8c66ed71817b3874d98fce6d4a3095664736f6c63430008180033",
  "linkReferences": {},
  "deployedLinkReferences": {}
}