{
  "_format": "hh-sol-artifact-1",
  "contractName": "Tasks",
  "sourceName": "contracts/Tasks.sol",
  "abi": [
    {
      "anonymous": false,
      "inputs": [
        {
          "indexed": true,
          "internalType": "address",
          "name": "owner",
          "type": "address"
        },
        {
          "indexed": false,
          "internalType": "uint256",
          "name": "taskIndex",
          "type": "uint256"
        },
        {
          "indexed": false,
          "internalType": "bool",
          "name": "completed",
          "type": "bool"
        }
      ],
      "name": "TaskCompleted",
      "type": "event"
    },
    {
      "anonymous": false,
      "inputs": [
        {
          "indexed": true,
          "internalType": "address",
          "name": "owner",
          "type": "address"
        },
        {
          "indexed": false,
          "internalType": "string",
          "name": "description",
          "type": "string"
        },
        {
          "indexed": false,
          "internalType": "uint256",
          "name": "time",
          "type": "uint256"
        }
      ],
      "name": "TaskCreated",
      "type": "event"
    },
    {
      "anonymous": false,
      "inputs": [
        {
          "indexed": true,
          "internalType": "address",
          "name": "owner",
          "type": "address"
        },
        {
          "indexed": false,
          "internalType": "uint256",
          "name": "taskIndex",
          "type": "uint256"
        }
      ],
      "name": "TaskDeleted",
      "type": "event"
    },
    {
      "inputs": [
        {
          "internalType": "string",
          "name": "_taskDescription",
          "type": "string"
        },
        {
          "internalType": "uint256",
          "name": "_time",
          "type": "uint256"
        }
      ],
      "name": "createTask",
      "outputs": [],
      "stateMutability": "nonpayable",
      "type": "function"
    },
    {
      "inputs": [],
      "name": "deleteCompletedTasks",
      "outputs": [],
      "stateMutability": "nonpayable",
      "type": "function"
    },
    {
      "inputs": [],
      "name": "getAllOwners",
      "outputs": [
        {
          "internalType": "address[]",
          "name": "",
          "type": "address[]"
        }
      ],
      "stateMutability": "view",
      "type": "function"
    },
    {
      "inputs": [],
      "name": "getTasks",
      "outputs": [
        {
          "components": [
            {
              "internalType": "string",
              "name": "description",
              "type": "string"
            },
            {
              "internalType": "uint256",
              "name": "time",
              "type": "uint256"
            },
            {
              "internalType": "bool",
              "name": "completed",
              "type": "bool"
            }
          ],
          "internalType": "struct Tasks.Task[]",
          "name": "",
          "type": "tuple[]"
        }
      ],
      "stateMutability": "view",
      "type": "function"
    },
    {
      "inputs": [
        {
          "internalType": "uint256",
          "name": "_taskIndex",
          "type": "uint256"
        }
      ],
      "name": "markTaskAsCompleted",
      "outputs": [],
      "stateMutability": "nonpayable",
      "type": "function"
    }
  ],
  "bytecode": "0x608060405234801561001057600080fd5b50611408806100206000396000f3fe608060405234801561001057600080fd5b50600436106100575760003560e01c806304a87e381461005c57806304fe2b341461007a57806316c1274614610096578063b10bcefa146100b4578063f5bef8f9146100d0575b600080fd5b6100646100da565b6040516100719190610a3f565b60405180910390f35b610094600480360381019061008f9190610bd6565b61022f565b005b61009e610403565b6040516100ab9190610d22565b60405180910390f35b6100ce60048036038101906100c99190610d44565b610491565b005b6100d86105e8565b005b60606000803373ffffffffffffffffffffffffffffffffffffffff1673ffffffffffffffffffffffffffffffffffffffff168152602001908152602001600020600001805480602002602001604051908101604052809291908181526020016000905b82821015610226578382906000526020600020906003020160405180606001604052908160008201805461017090610da0565b80601f016020809104026020016040519081016040528092919081815260200182805461019c90610da0565b80156101e95780601f106101be576101008083540402835291602001916101e9565b820191906000526020600020905b8154815290600101906020018083116101cc57829003601f168201915b50505050508152602001600182015481526020016002820160009054906101000a900460ff1615151515815250508152602001906001019061013d565b50505050905090565b6000604051806060016040528084815260200183815260200160001515815250905060008060003373ffffffffffffffffffffffffffffffffffffffff1673ffffffffffffffffffffffffffffffffffffffff1681526020019081526020016000206000018054905003610301576001339080600181540180825580915050600190039060005260206000200160009091909190916101000a81548173ffffffffffffffffffffffffffffffffffffffff021916908373ffffffffffffffffffffffffffffffffffffffff1602179055505b6000803373ffffffffffffffffffffffffffffffffffffffff1673ffffffffffffffffffffffffffffffffffffffff16815260200190815260200160002060000181908060018154018082558091505060019003906000526020600020906003020160009091909190915060008201518160000190816103819190610f7d565b506020820151816001015560408201518160020160006101000a81548160ff02191690831515021790555050503373ffffffffffffffffffffffffffffffffffffffff167f05823eb620f87a6624cbda6e3a3c8e9aef6b9c0c8483cece7a822f3084e8fbaf84846040516103f69291906110a8565b60405180910390a2505050565b6060600180548060200260200160405190810160405280929190818152602001828054801561048757602002820191906000526020600020905b8160009054906101000a900473ffffffffffffffffffffffffffffffffffffffff1673ffffffffffffffffffffffffffffffffffffffff168152602001906001019080831161043d575b5050505050905090565b6000803373ffffffffffffffffffffffffffffffffffffffff1673ffffffffffffffffffffffffffffffffffffffff168152602001908152602001600020600001805490508110610517576040517f08c379a000000000000000000000000000000000000000000000000000000000815260040161050e90611124565b60405180910390fd5b60016000803373ffffffffffffffffffffffffffffffffffffffff1673ffffffffffffffffffffffffffffffffffffffff168152602001908152602001600020600001828154811061056c5761056b611144565b5b906000526020600020906003020160020160006101000a81548160ff0219169083151502179055503373ffffffffffffffffffffffffffffffffffffffff167f3621461a70da48fecf8452ce0a2af8773e6f26aff6a39e0504d0d9c51c6032068260016040516105dd929190611182565b60405180910390a250565b60008060003373ffffffffffffffffffffffffffffffffffffffff1673ffffffffffffffffffffffffffffffffffffffff168152602001908152602001600020905060005b81600001805490508110156108085781600001818154811061065257610651611144565b5b906000526020600020906003020160020160009054906101000a900460ff16156107f4573373ffffffffffffffffffffffffffffffffffffffff167fd1bc87501afcaa22b7f6481dac99ed45fbe02321873ca9b55c1f41b9d78b8fb3826040516106bc91906111ab565b60405180910390a260008190505b600183600001805490506106de91906111f5565b81101561079557826000016001826106f69190611229565b8154811061070757610706611144565b5b906000526020600020906003020183600001828154811061072b5761072a611144565b5b90600052602060002090600302016000820181600001908161074d9190611273565b50600182015481600101556002820160009054906101000a900460ff168160020160006101000a81548160ff02191690831515021790555090505080806001019150506106ca565b50816000018054806107aa576107a961135b565b5b6001900381819060005260206000209060030201600080820160006107cf919061080c565b60018201600090556002820160006101000a81549060ff021916905550509055610803565b80806107ff9061138a565b9150505b61062d565b5050565b50805461081890610da0565b6000825580601f1061082a5750610849565b601f016020900490600052602060002090810190610848919061084c565b5b50565b5b8082111561086557600081600090555060010161084d565b5090565b600081519050919050565b600082825260208201905092915050565b6000819050602082019050919050565b600081519050919050565b600082825260208201905092915050565b60005b838110156108cf5780820151818401526020810190506108b4565b60008484015250505050565b6000601f19601f8301169050919050565b60006108f782610895565b61090181856108a0565b93506109118185602086016108b1565b61091a816108db565b840191505092915050565b6000819050919050565b61093881610925565b82525050565b60008115159050919050565b6109538161093e565b82525050565b6000606083016000830151848203600086015261097682826108ec565b915050602083015161098b602086018261092f565b50604083015161099e604086018261094a565b508091505092915050565b60006109b58383610959565b905092915050565b6000602082019050919050565b60006109d582610869565b6109df8185610874565b9350836020820285016109f185610885565b8060005b85811015610a2d5784840389528151610a0e85826109a9565b9450610a19836109bd565b925060208a019950506001810190506109f5565b50829750879550505050505092915050565b60006020820190508181036000830152610a5981846109ca565b905092915050565b6000604051905090565b600080fd5b600080fd5b600080fd5b600080fd5b7f4e487b7100000000000000000000000000000000000000000000000000000000600052604160045260246000fd5b610ab7826108db565b810181811067ffffffffffffffff82111715610ad657610ad5610a7f565b5b80604052505050565b6000610ae9610a61565b9050610af58282610aae565b919050565b600067ffffffffffffffff821115610b1557610b14610a7f565b5b610b1e826108db565b9050602081019050919050565b82818337600083830152505050565b6000610b4d610b4884610afa565b610adf565b905082815260208101848484011115610b6957610b68610a7a565b5b610b74848285610b2b565b509392505050565b600082601f830112610b9157610b90610a75565b5b8135610ba1848260208601610b3a565b91505092915050565b610bb381610925565b8114610bbe57600080fd5b50565b600081359050610bd081610baa565b92915050565b60008060408385031215610bed57610bec610a6b565b5b600083013567ffffffffffffffff811115610c0b57610c0a610a70565b5b610c1785828601610b7c565b9250506020610c2885828601610bc1565b9150509250929050565b600081519050919050565b600082825260208201905092915050565b6000819050602082019050919050565b600073ffffffffffffffffffffffffffffffffffffffff82169050919050565b6000610c8982610c5e565b9050919050565b610c9981610c7e565b82525050565b6000610cab8383610c90565b60208301905092915050565b6000602082019050919050565b6000610ccf82610c32565b610cd98185610c3d565b9350610ce483610c4e565b8060005b83811015610d15578151610cfc8882610c9f565b9750610d0783610cb7565b925050600181019050610ce8565b5085935050505092915050565b60006020820190508181036000830152610d3c8184610cc4565b905092915050565b600060208284031215610d5a57610d59610a6b565b5b6000610d6884828501610bc1565b91505092915050565b7f4e487b7100000000000000000000000000000000000000000000000000000000600052602260045260246000fd5b60006002820490506001821680610db857607f821691505b602082108103610dcb57610dca610d71565b5b50919050565b60008190508160005260206000209050919050565b60006020601f8301049050919050565b600082821b905092915050565b600060088302610e337fffffffffffffffffffffffffffffffffffffffffffffffffffffffffffffffff82610df6565b610e3d8683610df6565b95508019841693508086168417925050509392505050565b6000819050919050565b6000610e7a610e75610e7084610925565b610e55565b610925565b9050919050565b6000819050919050565b610e9483610e5f565b610ea8610ea082610e81565b848454610e03565b825550505050565b600090565b610ebd610eb0565b610ec8818484610e8b565b505050565b5b81811015610eec57610ee1600082610eb5565b600181019050610ece565b5050565b601f821115610f3157610f0281610dd1565b610f0b84610de6565b81016020851015610f1a578190505b610f2e610f2685610de6565b830182610ecd565b50505b505050565b600082821c905092915050565b6000610f5460001984600802610f36565b1980831691505092915050565b6000610f6d8383610f43565b9150826002028217905092915050565b610f8682610895565b67ffffffffffffffff811115610f9f57610f9e610a7f565b5b610fa98254610da0565b610fb4828285610ef0565b600060209050601f831160018114610fe75760008415610fd5578287015190505b610fdf8582610f61565b865550611047565b601f198416610ff586610dd1565b60005b8281101561101d57848901518255600182019150602085019450602081019050610ff8565b8683101561103a5784890151611036601f891682610f43565b8355505b6001600288020188555050505b505050505050565b600082825260208201905092915050565b600061106b82610895565b611075818561104f565b93506110858185602086016108b1565b61108e816108db565b840191505092915050565b6110a281610925565b82525050565b600060408201905081810360008301526110c28185611060565b90506110d16020830184611099565b9392505050565b7f496e76616c6964207461736b20696e6465780000000000000000000000000000600082015250565b600061110e60128361104f565b9150611119826110d8565b602082019050919050565b6000602082019050818103600083015261113d81611101565b9050919050565b7f4e487b7100000000000000000000000000000000000000000000000000000000600052603260045260246000fd5b61117c8161093e565b82525050565b60006040820190506111976000830185611099565b6111a46020830184611173565b9392505050565b60006020820190506111c06000830184611099565b92915050565b7f4e487b7100000000000000000000000000000000000000000000000000000000600052601160045260246000fd5b600061120082610925565b915061120b83610925565b9250828203905081811115611223576112226111c6565b5b92915050565b600061123482610925565b915061123f83610925565b9250828201905080821115611257576112566111c6565b5b92915050565b60008154905061126c81610da0565b9050919050565b818103611281575050611359565b61128a8261125d565b67ffffffffffffffff8111156112a3576112a2610a7f565b5b6112ad8254610da0565b6112b8828285610ef0565b6000601f8311600181146112e757600084156112d5578287015490505b6112df8582610f61565b865550611352565b601f1984166112f587610dd1565b965061130086610dd1565b60005b8281101561132857848901548255600182019150600185019450602081019050611303565b868310156113455784890154611341601f891682610f43565b8355505b6001600288020188555050505b5050505050505b565b7f4e487b7100000000000000000000000000000000000000000000000000000000600052603160045260246000fd5b600061139582610925565b91507fffffffffffffffffffffffffffffffffffffffffffffffffffffffffffffffff82036113c7576113c66111c6565b5b60018201905091905056fea26469706673582212204e3afaa57b8c1341a97be62904f541dc95257911781ce3c0a148aaef8b4e31ad64736f6c63430008180033",
  "linkReferences": {},
  "deployedLinkReferences": {}
}